:020000040800F2
:10000000680C0020AD020008970400088F04000867
:1000100093040008530400088D0500080000000048
:10002000000000000000000000000000DB040008E9
:100030005704000800000000D9040008DD0400088F
:10004000C7020008C7020008C7020008C70200086C
:10005000C7020008C7020008590400086B04000822
:10006000C7020008C7020008C7020008C70200084C
:10007000C7020008C7020008C7020008C70200083C
:10008000C7020008C7020008C7020008C70200082C
:10009000C7020008C7020008C70200087D04000864
:1000A000C7020008C7020008C7020008C70200080C
:1000B000C7020008C7020008C7020008C7020008FC
:1000C000C7020008C7020008C7020008C7020008EC
:1000D000C7020008C7020008C7020008C7020008DC
:1000E000C7020008C7020008C7020008C7020008CC
:1000F000C7020008C7020008C7020008C7020008BC
:10010000C7020008C7020008C7020008C7020008AB
:10011000C7020008C7020008C702000871050008EE
:10012000C7020008C7020008C7020008C70200088B
:10013000C7020008C7020008C7020008C70200087B
:10014000C7020008C7020008C7020008C70200086B
:10015000C7020008C702000800000000C70200082C
:10016000C7020008C70200080000000000000000ED
:10017000C7020008C7020008C7020008000000000C
:1001800000000000C7020008C7020008C7020008FC
:10019000C70200080000000000000000000000008E
:1001A000000000000000000000000000C70200087E
:1001B000C702000800000000C7020008000000009D
:1001C000000000000000000000000000000000002F
:1001D0000000000000000000C7020008C70200087D
:1001E000C7020008C7020008C7020008C7020008CB
:1001F000C7020008C7020008C7020008C7020008BB
:10020000C7020008C7020008C702000800F002F891
:1002100000F03CF80AA090E8000C82448344AAF164
:100220000107DA4501D100F031F8AFF2090EBAE862
:100230000F0013F0010F18BFFB1A43F0010318471A
:100240002812000048120000103A24BF78C878C174
:10025000FAD8520724BF30C830C144BF04680C60CC
:10026000704700000023002400250026103A28BF14
:1002700078C1FBD8520728BF30C148BF0B60704718
:100280001FB501F0CDF81FBD10B510BD00F0A8F8E6
:100290001146FFF7F5FF00F01FFC00F0C6F803B4AD
:1002A000FFF7F2FF03BC00F0CDF8000009488047DB
:1002B00009480047FEE7FEE7FEE7FEE7FEE7FEE748
:1002C000FEE7FEE7FEE7FEE704480549054A064B60
:1002D00070470000E10400080D02000868000020DB
:1002E000680C0020680400206804002053EA020C17
:1002F00000F069802DE9F04B4FF00006002B1FBF86
:10030000B3FA83F503FA05F424FA05F65E4012BF4A
:100310001643B2FA82F502FA05F4C5F120051EBFB4
:1003200022FA05FC44EA0C04203556EA044C4FEA54
:10033000144418BF641C4FF000084FF000099042AD
:1003400071EB030C39D3002919BFB1FA81F701FA17
:1003500007F6B0FA80F700FA07F6C7F120071EBFCC
:1003600020FA07FC46EA0C062037B6FBF4FCA7EBA4
:100370000507103F07F01F0BCBF120060CFA0BFB13
:100380002CFA06F644BFB3460026202FA4BF5E46D3
:100390004FF0000B5BEA060C08BF4FF0010B19EBA6
:1003A0000B09ABFB027C48EB0608C01B06FB02CC2A
:1003B0000BFB03CC71EB0C01C1E70B460246414637
:1003C0004846BDE8F08B13B54FF000004FF0000138
:1003D000AFF30080BDE81C4070477047704770471E
:1003E000754600F02BF8AE4605006946534620F0EE
:1003F0000700854618B020B5FFF766FFBDE820402E
:100400004FF000064FF000074FF000084FF0000BD0
:1004100021F00701AC46ACE8C009ACE8C009ACE883
:10042000C009ACE8C0098D46704710B50446AFF36B
:1004300000802046BDE81040FFF731BF00487047FC
:100440000800002001491820ABBEFEE7260002008C
:10045000704700BFFEE7704710B5012000F0C0FAFA
:1004600010B1012000F06AFA10BD10B5022000F0B2
:10047000B7FA10B1022000F061FA10BD10B52020CB
:1004800000F0AEFA10B1202000F058FA10BD00BF05
:10049000FEE700BFFEE77047F0B503460C4603F0E9
:1004A0000701C1F10700042801D9042001E0C1F1CE
:1004B00007000646081D072801D2002000E0C81EDC
:1004C00005460120B040401E2040A8400127AF4013
:1004D0007F1E17403843F0BD7047704770470000DB
:1004E0001F48006840F470001D4908601D480068FE
:1004F00020F00100401C1B49086000BF194800683B
:10050000C0F340000028F9D016480830006820F0F9
:10051000030014490831086000BF12480830006821
:10052000C0F381000028F8D10E4800680E49084049
:100530000C49086000200B49083108600B48091F6E
:10054000086000200749A03108604FF41F000549EA
:100550000C3108604FF00060014980390860704735
:1005600088ED00E000380240FFFFF2FE0230030099
:1005700010B50121044800F0FBFC18B1012102482C
:1005800000F0E8FC10BD00000014004000BFFEE7D2
:1005900002480068C0F30220704700000CED00E044
:1005A00010B5002804DB0A07130E054A135406E0B1
:1005B0000A07140E034A00F00F031B1FD45410BD8A
:1005C00000E400E018ED00E00349096860F307115A
:1005D000014A116070470000083802400349096869
:1005E00060F38C21014A1160704700000838024016
:1005F0000349096860F34F31014A116070470000F8
:1006000008380240012807D10749096821F0300164
:100610003031054A116005E00349096821F03001D5
:10062000014A116070470000A438024005282BD20F
:10063000DFE800F0030A11182100154A126861F37F
:100640000002134B1A6020E0114A126861F3104255
:100650000F4B1A6019E00E4A126861F318620C4BD6
:100660001A6012E00A4A7032126861F30002084B05
:1006700070331A6009E0064A7432126861F30002AE
:10068000034B74331A6000E000BF00BF70470000E6
:10069000003802402DE9FE4F04464FF00009CA46DB
:1006A000CB460020029001900025002600F036F98C
:1006B0000090009820B1012812D002283FD112E00A
:1006C00031480068C0F3803038B12F480068C0F36B
:1006D000003010B12D48206001E02D48206031E04D
:1006E0002B4820602EE028489C380068C0F38050DA
:1006F000029025489C380068C0F3881922489C382D
:10070000006800F00F0A20489C380068C0F30240DF
:10071000204911F800B0029810B91D48019001E07D
:100720001B4801900AFB0BFC0198A0FB09700146D5
:10073000624600233846FFF7D9FD206002E01448E6
:10074000206000BF00BF104898380068C0F3031550
:100750001148465D2068F04060600B48983800689A
:10076000C0F382250D48465D6068F040E0600648B1
:1007700098380068C0F342350948465D6068F0402B
:10078000A060BDE8FE8F0000A0380240006CDC02D3
:1007900000127A004A1400082A1400083A140008CB
:1007A0004214000810B501460020094B03EB11422A
:1007B000D2F8002801F01F040123A3401A4001F0E1
:1007C0001F040123A3409A4200D000E0012010BD85
:1007D0000030024010B501290FD1104B03EB10423D
:1007E000D2F8002800F01F040123A3401A430B4C49
:1007F00004EB1043C3F800280EE0084B03EB104253
:10080000D2F8002800F01F040123A3409A43034CB0
:1008100004EB1043C3F8002810BD00000030024074
:1008200030B538B90F4C246824F4805404F5805452
:100830000C4D2C600B4C9C3C246860F39654094D85
:100840009C3D2C602C46246861F38E142C602C4651
:10085000246862F303042C602C46246863F312447A
:100860002C6030BDA03802401A48006820F001001A
:10087000401C1849086000BF16480068C0F34000DB
:100880000028F9D013480830006820F0030011490F
:100890000831086000BF0F4808300068C0F38100CD
:1008A0000028F8D10B4800680B4908400949086046
:1008B00000200849083108600848091F0860002026
:1008C0000449A03108604FF41F0002490C31086050
:1008D0007047000000380240FFFFF2FE02300300C4
:1008E0000D49096860F301010B4A116000BF00BFA8
:1008F00000BF00BF00BF00BF00BF00BF00BF00BF00
:1009000000BF00BF00BF00BF00BF00BF00BF00BFEF
:1009100000BF00BF7047000008380240024800686E
:10092000C0F3810070470000083802400021417286
:1009300041600121017201707047000001490860A7
:1009400070470000143C0140014600204868234ADB
:1009500012688243214B1A601A1D126882431B1DC4
:100960001A604A7A0AB30A782AB91A1F126802432F
:100970001B1F1A6006E0194A121D12680243174B2A
:100980001B1D1A60154A083212688243134B083344
:100990001A601A1D126882431B1D1A600A7A2AB94E
:1009A0001A1F126802431B1F1A6016E00A7A012AF6
:1009B00007D10A4A0C3212680243084B0C331A6002
:1009C0000BE0064A083212680243044B08331A60EF
:1009D0001A1D126802431B1D1A607047003C01403B
:1009E000014600200022064B1B6803EA0102044B6B
:1009F000143B1B681A400AB1012000E00020704738
:100A0000143C0140816170474FF6FF710160002185
:100A10008171017141710121C171704770B50A4640
:100A200000211488A3B233E003F001046CB304681E
:100A30004E000325B540AC43046094794D00AC40B2
:100A400005682C430460446801258D40AC43446034
:100A5000446815798D402C43446084684E0003251A
:100A6000B540AC438460D4794D00AC4085682C43DC
:100A70008460C4684E000325B540AC43C46054791B
:100A80004D00AC40C5682C43C4605B104C1CA1B247
:100A9000002BC9DC70BDF0B5002300244D07ED0E1E
:100AA00002FA05F3CD105DB1456A4E07F70E0F2629
:100AB000BE40B5434562456A45EA030444620AE024
:100AC000056A4E07F70E0F26BE40B5430562056A5C
:100AD00045EA03040462F0BD00F006FC00F076FB7A
:100AE00000F000FB00F05CFC00F0C8FA00F08CFBAA
:100AF00000F054FA00F074FC00BFFEE72DE9F04767
:100B00000B4614464FF0000C00BF2C4A1268C2F38B
:100B100002211D4626460A46C2F10709B9F1040F13
:100B200002D94FF0040901E0C2F10709C84602F1F9
:100B30000409B9F1070F02D24FF0000901E0A2F158
:100B400003094F464FF0010909FA08F9A9F1010913
:100B500009EA050909FA07F94FF0010A0AFA07FA42
:100B6000AAF1010A0AEA060A49EA0A09CC4601463C
:100B70006246002904DB15072E0E114D6E5407E066
:100B800015072F0E0D4D0C3501F00F06361FAF5512
:100B900000BF014600290DDB00BF00BF01F01F05AB
:100BA0000122AA404D09AD0005F1E025C5F800215C
:100BB00000BF00BF00BFBDE8F08700000CED00E003
:100BC00000E400E000BF00F00702064B19684FF692
:100BD000FF031940044B0B4343EA0221014B196008
:100BE00000BF70470CED00E00000FA0510B50022D0
:100BF0008B071C0F0F2303FA04F28B1033B1012B68
:100C000013D0022B23D0032B45D132E0234B1B689A
:100C10009343224C236023461B688C07240F00FA61
:100C200004F423431D4C236036E01C4B1B1D1B6842
:100C300093431A4C241D236023461B688C07240F02
:100C400000FA04F42343154C241D236024E0134BC5
:100C500008331B689343114C0834236023461B68F8
:100C60008C07240F00FA04F423430C4C083423604F
:100C700012E00A4B0C331B689343084C0C3423607E
:100C800023461B688C07240F00FA04F42343034C0B
:100C90000C34236000E000BF00BF10BD08380140E5
:100CA0000021017041708170C170017141718171C9
:100CB0000121C1717047026861F3861202607047BA
:100CC000C26922F40062C2610A7862B9026822F441
:100CD00000420260026822F480420260026822F44C
:100CE0008062026036E00A78012A0ED1026822F49E
:100CF00000420260026822F480420260026822F42C
:100D0000806202F58062026024E00A78022A0ED135
:100D1000026822F4004202F500420260026822F4F6
:100D200080420260026822F48062026012E00A7867
:100D3000032A0FD1026822F4004202F50042026049
:100D4000026822F4804202F580420260026822F4C6
:100D500080620260CB79026863F3492202604A78BC
:100D6000012A09D1CA79012A06D1026822F48072C7
:100D700002F58072026003E0026822F48072026071
:100D80004B78026863F3820202608A78072A0DDCDE
:100D9000426822F400724260426822F4807242602B
:100DA0008B78026863F3C502026020E08A780A2A21
:100DB0000ED1426822F4007202F50072426042686D
:100DC00022F480724260026822F0380202600EE073
:100DD000426822F400724260426822F4807202F596
:100DE000807242608A78036862F3C5030360CB783F
:100DF000026863F3C71202600B79026863F3CB22C7
:100E000002604B79026863F3410202608B790268E9
:100E100063F30002026070472DE9FC5F00240025A7
:100E20000026A146A246A34600200190FFF776FDCA
:100E30000090009820B1012814D0022841D115E07B
:100E40002B480068C0F3803040B129480068C0F3E7
:100E5000003018B127482849086002E02748264991
:100E6000086032E02548244908602EE020489C387C
:100E70000068C0F380591E489C380068C0F388148D
:100E80001B489C38006800F00F0519489C38006822
:100E9000C0F302401A490E5CB9F1000F02D1DFF82D
:100EA0005CA001E0DFF854A005FB06FCAAFB04707F
:100EB0000146624600233846FFF718FA0E490860DB
:100EC00003E00E480C49086000BF00BF084898388E
:100ED0000068C0F3031B0B4810F80B000190064894
:100EE00000680199C84004490860BDE8FC9F000003
:100EF000A0380240006CDC020400002000127A00DE
:100F00006014000850140008042808D14FF0E021B4
:100F1000096941F004014FF0E022116107E04FF050
:100F2000E021096921F004014FF0E02211617047CE
:100F3000C1628262436923F001035B1C4361704715
:100F4000026861F3061202607047026861F30002F2
:100F500002607047CA4302617047012A03D1C36827
:100F60000B43C36003E012B9C3688B43C36070478F
:100F70000246002013690B4023B1D3680B400BB12C
:100F8000012000E000207047026861F3C712026090
:100F90007047426861F306124260704700B585B041
:100FA00003A8FFF731FD00208DF812000120039007
:100FB0008DF8110003A93048FFF730FD0021012012
:100FC000FFF714FE6846FFF7B1FC01208DF8090019
:100FD00000208DF80000012001908DF8080068467F
:100FE000FFF7B2FC03A8FFF70FFD00208DF81200F9
:100FF0000220039001208DF8110003A91E48FFF77D
:101000000DFD01210846FFF7F1FD6846FFF78EFC54
:1010100001208DF8090000208DF8000002200190C9
:1010200001208DF808006846FFF78EFC03A8FFF743
:10103000EBFC00208DF812002020039001208DF899
:10104000110003A90C48FFF7E9FC05210120FFF777
:10105000CDFD6846FFF76AFC01208DF809000020ED
:101060008DF800002020019001208DF808006846CE
:10107000FFF76AFC05B000BD000402401CB56846DD
:10108000FFF7C2FC01208DF8070000208DF8040056
:1010900001208DF8060000908DF8050069460F4884
:1010A000FFF7BCFC01210D48FFF7ACFC02208DF8D6
:1010B000070000208DF8040001208DF806000003D1
:1010C000009001208DF8050069460548FFF7A6FC51
:1010D0004FF480510248FFF795FC1CBD0000024010
:1010E0000004024070B50320FFF76CFDFFF750FAD3
:1010F000054600221146FFF7CFF9044621466FF05E
:101100000B00FFF74DFAFFF743FA054600221146A0
:10111000FFF7C2F9044621466FF00A00FFF740FAD4
:10112000FFF736FA054600221146FFF7B5F90446E7
:1011300021466FF00900FFF733FAFFF729FA054659
:1011400000221146FFF7A8F9044621466FF004007B
:10115000FFF726FAFFF71CFA054600221146FFF7B3
:101160009BF9044621466FF00300FFF719FAFFF7D9
:101170000FFA054600221146FFF78EF90446214674
:101180006FF00100FFF70CFAFFF702FA05460022A4
:101190000F21FFF781F9044621464FF0FF30FFF79A
:1011A000FFF9002202210620FFF7A8FC00220221FD
:1011B0000720FFF7A3FC002201211720FFF79EFC68
:1011C000002201213720FFF799FC70BD10B50121E5
:1011D0004FF44010FFF7FEFA01210848FFF7FAFA32
:1011E00001210748FFF7F6FA012105480930FFF70A
:1011F000F1FA01210348FFF7EDFA10BD01003000BC
:10120000050040000E0044001FB502A8FFF7FCFBDC
:101210006846FFF745FD05220D213148FFF73BFCED
:1012200002208DF80F0000208DF80C0002208DF8B0
:101230000E000003029000208DF80D0002A928483E
:10124000FFF7ECFB05220E212548FFF724FC0220C6
:101250008DF80F0000208DF80C0002208DF80E0094
:101260004003029000208DF80D0002A91C48FFF7F2
:10127000D5FB05220F211A48FFF70DFC02208DF83F
:101280000F0000208DF80C0002208DF80E00800366
:10129000029000208DF80D0002A91148FFF7BEFB57
:1012A00000208DF8000001208DF8010000208DF84D
:1012B00004008DF8030001208DF8020000208DF855
:1012C00005008DF8060001208DF8070069460548E5
:1012D000FFF7F6FC01210348FFF7EDFC1FBD0000FE
:1012E000000402400038004010B5FFF7BDFA0121AC
:1012F0002748FFF76FFA2748006920F00700401CD5
:10130000244908612448006820F00300401C224959
:10131000086001210420FFF789F900BF1F48FFF78B
:1013200041FA0128FAD101210020FFF77FF900BF1F
:101330000120FFF737FA0128FAD102230122902178
:101340000020FFF76DFA01210220FFF76FF900BFBF
:101350001920FFF727FA0128FAD10020FFF734F906
:101360000420FFF745F90420FFF738F90120FFF7C3
:1013700049F90220FFF7B4FA00BFFFF7CFFA0228BD
:10138000FBD10020FFF73EF9FFF746FD10BD00003E
:101390001C00400000700040603C024001007400EE
:1013A0001FB500246846FFF775F90198C4080020AE
:1013B000FFF7AAFD0848B4FBF0F0084908600020D8
:1013C0004FF0E02188616FF07F4048610846006976
:1013D00040F0010008611FBD40420F0000000020E6
:1013E00010B500210D48FFF7ABFD01210B48FFF7B9
:1013F000CBFD2A224FF4FA610848FFF799FD00213E
:101400000648FFF7C6FD01210448FFF79EFD0122B3
:1014100011460248FFF7A1FD10BD00000014004076
:101420004FF04070E1EE100A70470000000000002D
:101430000000010203040607080900000000010281
:10144000030400000000010203040102040810204C
:101450000000000000000000010203040607080964
:101460000102040810200000881400080000002079
:10147000080000004802000890140008080000203E
:10148000600C0000640200080000000000127A00F6
:040000050800020DE0
:00000001FF
